:020000040800F2
:1000000058060020010100089B0300089303000824
:1000100097030008490100083105000800000000AE
:10002000000000000000000000000000E1030008E4
:100030004D010008000000009D030008CD040008E9
:100040001B0100081B0100081B0100081B01000820
:100050001B0100081B0100081B0100081B01000810
:100060001B0100081B0100081B0100081B01000800
:100070001B0100081B0100081B0100081B010008F0
:100080001B0100081B0100081B0100081B010008E0
:100090001B0100081B0100081B0100081B010008D0
:1000A0001B0100081B0100081B0100081B010008C0
:1000B0001B0100081B0100081B0100081B010008B0
:1000C0001B0100081B0100081B0100081B010008A0
:1000D0001B0100081B0100081B0100081B01000890
:1000E0001B0100081B0100081B010008DFF80CD0F1
:1000F00000F018F800480047690B00085806002077
:100100000648804706480047FEE7FEE7FEE7FEE7B1
:10011000FEE7FEE7FEE7FEE7FEE7FEE7D1040008A4
:10012000ED000008064C074D06E0E06840F00103D2
:1001300094E8070098471034AC42F6D3FFF7DAFF93
:10014000D00D0008F00D000800BFFEE7704700006A
:1001500008B54FF60770ADF8000010208DF80300C9
:1001600003208DF802006946134800F02BF80121A6
:10017000124800F0B3F80F20ADF8000010208DF801
:10018000030069460E4800F01DF8F020ADF80000AD
:1001900048208DF803006946094800F013F84FF431
:1001A0007F40ADF8000048208DF803006946044800
:1001B00000F008F808BD0000000C01400004300009
:1001C000000801402DE9F0410246002500260020EC
:1001D00000230024002791F803C00CF00F0591F8CC
:1001E00003C00CF0100CBCF1000F03D091F802C05A
:1001F0004CEA050591F800C0BCF1000F31D014683D
:1002000000202BE04FF0010C0CFA00F3B1F800C015
:100210000CEA03069E4220D183004FF00F0C0CFA2B
:1002200003F7BC4305FA03FC4CEA040491F803C04D
:10023000BCF1280F06D14FF0010C0CFA00FCC2F8FB
:1002400014C00AE091F803C0BCF1480F05D14FF08B
:10025000010C0CFA00FCC2F810C0401C0828D1D3D5
:100260001460B1F800C0BCF1FF0F34DD5468002009
:100270002EE000F1080C4FF0010808FA0CF3B1F879
:1002800000C00CEA03069E4221D183004FF00F0C00
:100290000CFA03F7BC4305FA03FC4CEA040491F89A
:1002A00003C0BCF1280F05D100F1080C08FA0CF8C6
:1002B000C2F8148091F803C0BCF1480F07D100F1D7
:1002C000080C4FF0010808FA0CF8C2F81080401C26
:1002D0000828CED35460BDE8F0810000F0B50A468E
:1002E000002300240021002500F00046B6F1004F55
:1002F00002D11D4EF16901E01B4E7168C0F3034548
:1003000083B200F44016B6F5401F08D121F07061A9
:10031000154E766826F07066134F7E6012E000F48A
:100320008016B6F5801F06D1032606FA05F4A14310
:1003300041F0706106E0460D360103FA06F6B1435E
:1003400041F0706122B1460D360103FA06F63143E1
:1003500000F00046B6F1004F02D1034EF16101E01A
:10036000014E7160F0BD0000000001400146886848
:1003700080B270470246002093680B400BB1012009
:1003800000E0002070474161704701617047C16023
:10039000704700BFFEE700BFFEE77047704710B52B
:1003A00000F096F80121082000F00AF8012104204D
:1003B00000F006F80121084600F002F810BD000028
:1003C00029B1064A92690243044B9A6104E0034A48
:1003D00092698243014B9A6170470000001002400D
:1003E000704710B500F002F810BD00000CB50020F9
:1003F000019000903348006840F480303149086033
:1004000000BF3048006800F4003000900198401CA4
:100410000190009818B90198B0F5A06FF1D1294862
:10042000006800F4003010B10120009001E00020CD
:1004300000900098012843D12348006840F0100044
:10044000214908600846006820F00300086008465B
:10045000006840F0020008601A4840681949486086
:100460000846406848600846406840F4806048603C
:100470000846406820F47C1048600846406840F414
:10048000E81048600846006840F08070086000BFCF
:100490000C48006800F000700028F9D00948406856
:1004A00020F00300074948600846406840F0020019
:1004B000486000BF0348406800F00C000828F9D1EC
:1004C0000CBD0000001002400020024070470000F8
:1004D00010B51348006840F0010011490860084653
:1004E0004068104908400E494860084600680E49B7
:1004F00008400B4908600846006820F48020086026
:100500000846406820F4FE0048604FF41F008860F1
:10051000FFF767FF4FF000600449086010BD00005E
:10052000001002400000FFF8FFFFF6FE08ED00E0BB
:1005300000BFFEE702E008C8121F08C1002AFAD176
:1005400070477047002001E001C1121F002AFBD153
:10055000704700002DE9FC41002000900027002496
:10056000CFE08748005D30280EDB8548005D3928E4
:100570000ADC8348005D009901EB810100EB41003A
:10058000303800900127BBE03FB169467D480068E4
:1005900000F0FBFB0027002000907948005D29282F
:1005A0001DD101A97848006800F001FC0DE001A907
:1005B0007548006800F0D7FB9DF8040000F0EAF8E9
:1005C00001A97148006800F0F2FB9DF8040028289A
:1005D000EDD101A96C48006800F0C5FB90E06A48C5
:1005E000006800F0B0FB18B96548005D282806D106
:1005F000634801196448006800F0C7FB80E001A966
:100600006148006800F0D3FB5D48005D2838082889
:100610000BD2DFE800F00B0A07040A050A0800BF46
:10062000012505E000BF022502E000BF002500BF54
:1006300000BF9DF80400283808280BD2DFE800F03E
:100640000B0A07040A050A0800BF012605E000BFDF
:10065000022602E000BF002600BF00BFB54206DD53
:10066000474801194848006800F08FFB48E03DE02A
:1006700001A94548006800F076FB9DF8040000F0F1
:1006800089F84148006800F05EFB00B130E001A944
:100690003D48006800F08BFB3948005D2838082889
:1006A0000BD2DFE800F00B0A07040A050A0800BFB6
:1006B000012505E000BF022502E000BF002500BFC4
:1006C00000BF9DF80400283808280BD2DFE800F0AE
:1006D0000B0A07040A050A0800BF012605E000BF4F
:1006E000022602E000BF002600BF00BFB542BFDD0A
:1006F00000BF01A92448006800F047FB00BF00BF0D
:10070000641C22480068401EA042BFF62AAF27B1F1
:1007100069461C48006800F038FB08E001A91A4847
:10072000006800F020FB9DF8040000F033F8164844
:10073000006800F008FB0028F0D01248006800684C
:10074000642190FBF1F03030114908700D480068C9
:1007500000680A2190FBF1F090FBF1F201FB12001E
:1007600030300B4948700748006800680A2190FB48
:10077000F1F201FB1200303005498870BDE8FC81C0
:100780002C000020440000204800002040000020F1
:100790001C0000203EB5044602A91C48006800F079
:1007A000E2FA01A91948006800F0DDFA2A2C10D0FD
:1007B0002B2C04D02D2C07D02F2C15D10EE0DDE9E9
:1007C0000110084400901AE0DDE90101401A009090
:1007D00015E0DDE901104843009010E0DDE901017A
:1007E00090FBF1F000900AE001A90848006800F0D1
:1007F000CCFA02A90548006800F0C7FA00BF00BFA4
:1008000069460248006800F0C0FA3EBD440000207E
:10081000014601224FF0E0231A6142F228324A4396
:100820005A6100229A6100BF4FF0E022106900F087
:1008300001021AB100F48032002AF5D000224FF0F4
:10084000E0231A619A61704710B5802000F0D4F857
:10085000002405E00A49085D00F028F9601CC4B2D4
:10086000102CF7DBC02000F0C7F8002405E0054994
:10087000085D00F01BF9601CC4B2102CF7DB10BD42
:100880002C0000201C0000202DE9F041FE214448EE
:10089000FFF77DFD4248FFF769FD074607F0FF08B7
:1008A000B8F1FE0F22D0C820FFF7B2FFB8F1FE0F5B
:1008B0001CD008F0F004702C11D0B02C0BD0D02C30
:1008C00005D0E02C0FD1302000F000FA0BE03120F1
:1008D00000F0FCF907E0322000F0F8F903E03320E3
:1008E00000F0F4F900BF00BFBDE8F081FD212C4805
:1008F000FFF74DFD2A48FFF739FD0746FDB2FD2DF4
:1009000020D0C820FFF784FFFD2D1BD005F0F00498
:10091000702C11D0B02C0BD0D02C05D0E02C0FD1E6
:10092000342000F0D3F90BE0352000F0CFF907E0D8
:10093000362000F0CBF903E0372000F0C7F900BF04
:1009400000BFD1E7FB211648FFF721FD1448FFF750
:100950000DFD0746FEB2FB2E20D0C820FFF758FF42
:10096000FB2E1BD006F0F004702C11D0B02C0BD055
:10097000D02C05D0E02C0FD1382000F0A7F90BE0E7
:10098000392000F0A3F907E0292000F09FF903E0E7
:100990003D2000F09BF900BF00BFA5E700BFA3E723
:1009A0000008014010B50F20FFF732FF322000F0A1
:1009B00023F80520FFF72CFF282000F01DF8052064
:1009C000FFF726FF082000F017F80520FFF720FFAB
:1009D000012000F011F80520FFF71AFF062000F0B3
:1009E0000BF80520FFF714FF0C2000F005F8052098
:1009F000FFF70EFF10BD000010B5044600BF00F069
:100A000079F90028FBD102212748FFF7BCFC04211B
:100A10002548FFF7B8FC01212348FFF7B4FC01206B
:100A2000FFF7F6FE4FF4704000EA04201E49103133
:100A30000860E0434FF4704101EA00201A49143184
:100A400008600120FFF7E4FE01211748FFF79DFC35
:100A50000120FFF7DDFE01211348FFF794FC012080
:100A6000FFF7D6FE4FF4704000EA04300E49103113
:100A70000860E0434FF4704101EA00300A49143144
:100A800008600120FFF7C4FE01210748FFF77DFC45
:100A90000120FFF7BDFE01210348FFF774FC012090
:100AA000FFF7B6FE10BD0000000C014010B5044673
:100AB00000BF00F01FF90028FBD102212948FFF7F1
:100AC00064FC04212748FFF75EFC01212548FFF75D
:100AD0005AFC0120FFF79CFE4FF4704000EA04200E
:100AE000204910310860E0434FF4704101EA0020D2
:100AF0001C49143108600120FFF78AFE01211948C2
:100B0000FFF743FC0120FFF783FE01211548FFF7A3
:100B10003AFC0120FFF77CFE4FF4704000EA0430FD
:100B2000104910310860E0434FF4704101EA003091
:100B30000C49143108600120FFF76AFE01210948C1
:100B4000FFF723FC0120FFF763FE01210548FFF7B3
:100B50001AFC0120FFF75CFE02210248FFF713FC9C
:100B600010BD0000000C014010B500F0DFF80E4988
:100B7000086000F0DBF80D4908600B48006810B110
:100B80000846006808B9012010BDFFF708FCFFF710
:100B9000DFFAFFF707FF05E000F040F8FFF774FE0B
:100BA000FFF752FEF8E70000440000204800002054
:100BB000F0B50B30154D20F007010024144A0FE06A
:100BC00003688B420BD38B4205D95E1A43184768E2
:100BD000C3E9006700E04368136002C004E0021D3F
:100BE00010680028ECD12046002802D1286808B1FE
:100BF0000020F0BD064A07481060074A121A22F08A
:100C00000702C0E9002401202860D7E75000002037
:100C10004C0000205C0000205802002000B589B084
:100C20004FF480712848FFF7A5FB01904FF4007145
:100C30002548FFF79FFB02904FF480612248FFF7A1
:100C400099FB03904FF400611F48FFF793FB04905A
:100C50004FF480511C48FFF78DFB05904FF4005175
:100C60001948FFF787FB06904FF480411648FFF7BD
:100C700081FB07904FF400411348FFF77BFB08907E
:100C80001420FFF7C5FD019810B92B2000F01EF8C5
:100C9000029810B92D2000F019F8049810B92A20F4
:100CA00000F014F8069810B92F2000F00FF80798FC
:100CB00020B9282000F00AF8FFF74CFC1420FFF7B9
:100CC000A7FD09B000BD0000000801400749096800
:100CD0000F2900DB704705490968491C034A116068
:100CE00003491268885400BFF4E700004000002068
:100CF0002C00002010B502210B48FFF744FB042113
:100D00000948FFF742FB01210748FFF73EFB064871
:100D1000FFF72CFB00240A20FFF77AFD012102488F
:100D2000FFF731FB204610BD000C014010B55420E8
:100D3000FFF73EFF04460CB9002010BD4FF0FF3016
:100D400020652046F9E70146086D401C08B90120DE
:100D500070470020FCE70146086D132801D10120EF
:100D600070470020FCE700B502460B461046FFF72F
:100D7000EAFF10B14FF0FF3000BD116D481E106545
:100D800052F8210018600020F6E700B502460B4635
:100D90001046FFF7E0FF10B14FF0FF3000BD1968BB
:100DA000106D401C106542F820100020F6E700B5D9
:100DB00002460B461046FFF7C6FF10B14FF0FF305A
:100DC00000BD106D52F8200018600020F8E7000008
:100DD000F00D000800000020540000003405000859
:100DE000440E0008540000200406000044050008DA
:100DF000303132333435363738390031202B203614
:100E0000202F20393D2020202020200020202020BD
:100E100020202020202020202020202020202020D2
:100E20002020202020202020202020200000000042
:100E3000FFFFFFFF000000000000000000000000B6
:040E400000000000AE
:04000005080000ED02
:00000001FF
