:020000040800F2
:100000003806002001010008ED040008E50400089E
:10001000E904000855010008F1060008000000008E
:10002000000000000000000000000000550500086E
:100030005901000800000000F104000885060008CE
:100040001B0100081B0100081B0100081B01000820
:100050001B0100081B0100081B0100081B01000810
:100060001B0100081B0100081B0100081B01000800
:100070001B0100081B0100081B0100081B010008F0
:100080001B0100081B0100081B0100081B010008E0
:100090001B0100081B0100081B0100081B010008D0
:1000A0001B0100081B0100081B0100081B010008C0
:1000B0001B0100081B0100081B0100081B010008B0
:1000C0001B0100081B0100081B0100081B010008A0
:1000D0001B0100081B0100081B0100081B01000890
:1000E0001B0100081B0100081B010008DFF80CD0F1
:1000F00000F018F800480047950F00083806002067
:100100000648804706480047FEE7FEE7FEE7FEE7B1
:10011000FEE7FEE7FEE7FEE7FEE7FEE789060008EA
:10012000ED0000081CB509480090094801900546FB
:10013000009C06E0E06840F0010394E8070098475F
:100140001034AC42F6D3FFF7D5FF0000D8120008F8
:10015000F8120008FFE7FEE77047000080B586B0A0
:100160004FF60770ADF81400102001908DF81700BD
:1001700003208DF8160040F60040C4F2010005A9E6
:10018000049100F02DF840F20040C0F2300001214F
:1001900000F0EAF8019804990F22ADF814208DF8C8
:1001A000170040F60000C4F20100039000F018F8B8
:1001B00003980499F022ADF81420482202928DF899
:1001C000172000F00DF8029A039804994FF47F432A
:1001D000ADF814308DF8172000F002F806B080BD9D
:1001E00088B007900691002005900490039002903B
:1001F000019000900698C07800F00F0005900698D6
:10020000C078C006002806D5FFE7069881780598D3
:1002100008430590FFE70698007800284BD0FFE7D9
:1002200007980068019000200390FFE703980728D3
:100230003DD8FFE703990120884002900698008886
:100240000299084004900498029988422AD1FFE755
:1002500003988000029002990F2088400090009936
:100260000198884301900598029900FA01F10198DC
:10027000084301900698C078282806D1FFE7039923
:1002800001208840079948610BE00698C07848280B
:1002900006D1FFE703990120884007990861FFE72D
:1002A000FFE7FFE7FFE7039801300390BEE70198FF
:1002B00007990860FFE706980088B0F5807F50DB5B
:1002C000FFE707984068019000200390FFE703983C
:1002D000072842D8FFE7039800F108010120884071
:1002E00002900698008802990840049004980299A8
:1002F00088422DD1FFE703988000029002990F20D9
:1003000088400090009901988843019005980299CF
:1003100000FA01F10198084301900698C078282856
:1003200008D1FFE7039800F10801012088400799F0
:100330004861FFE70698C078482808D1FFE703988E
:1003400000F108010120884007990861FFE7FFE7F5
:10035000FFE7039801300390B9E7019807994860D7
:10036000FFE708B07047000086B005908DF81310C5
:10037000002003900290019000909DF81700000665
:10038000002806D5FFE71C20C4F201000068019098
:1003900005E00420C4F2010000680190FFE7059821
:1003A000C0F303400090BDF814000390059800F4DA
:1003B0004010B0F5401F0CD1FFE7019820F07060AD
:1003C00001900421C4F20101086820F07060086007
:1003D00023E09DF81600C00600280DD5FFE7009920
:1003E0000320884002900299019888430190019867
:1003F00040F0706001900FE00398059A6FF00F01D4
:1004000001EA524100FA01F10198884301900198F4
:1004100040F070600190FFE7FFE79DF8130060B1C6
:10042000FFE70398059A6FF00F0101EA524100FAC5
:1004300001F1019808430190FFE79DF817000006BD
:10044000002806D5FFE701981C21C4F201010860CD
:1004500005E001980421C4F201010860FFE706B03D
:100460007047000081B000900098806880B201B0B1
:100470007047000082B00190ADF8021000208DF8A6
:10048000010001988068BDF80210084204D0FFE71F
:1004900001208DF8010003E000208DF80100FFE746
:1004A0009DF8010002B0704782B00190ADF80210D3
:1004B000BDF802000199486102B0704782B0019016
:1004C000ADF80210BDF802000199086102B0704752
:1004D00082B00190ADF80210BDF802000199C86029
:1004E00002B07047FFE7FEE7FFE7FEE77047000056
:1004F0007047000080B582B000F0C6F808200121E6
:10050000019100F00BF80199042000F007F801991F
:10051000084600F003F802B080BD000082B00190F0
:100520008DF803109DF8030048B1FFE7019A41F2EE
:100530001801C4F2020108681043086008E0019A3B
:1005400041F21801C4F20201086890430860FFE715
:1005500002B070477047000080B500F001F880BD20
:1005600084B000200390029041F20001C4F2020125
:10057000086840F480300860FFE741F20000C4F2F0
:100580000200006800F400300290039801300390EC
:10059000FFE702990020019039B9FFE70398B0F511
:1005A000A06018BF01200190FFE70198C007002854
:1005B000E3D1FFE741F20000C4F2020000688003CB
:1005C000002803D5FFE70120029002E000200290FE
:1005D000FFE70298012851D1FFE742F20001C4F27F
:1005E0000201086840F010000860086820F003006D
:1005F0000860086840F00200086041F20401C4F29B
:10060000020100910868086008680860086840F402
:1006100080600860086820F47C100860086840F476
:10062000E810086041F20001C4F20201086840F0DD
:1006300080700860FFE741F20000C4F20200006829
:100640008001002801D4FFE7F5E741F20401C4F27C
:100650000201086820F003000860086840F002000A
:100660000860FFE741F20400C4F20200006800F0F5
:100670000C00082801D0FFE7F4E700E0FFE704B032
:10068000704700007047000080B541F20002C4F2DC
:100690000202106840F00100106041F20401C4F24F
:1006A000020108680023CFF6FF03184008601068B5
:1006B0004FF6FF73CFF6F66318401060106820F411
:1006C00080201060086820F4FE00086041F20801F4
:1006D000C4F202014FF41F000860FFF73DFF4EF621
:1006E0000851CEF200014FF00060086080BD0000AC
:1006F000FFE7FEE780B58EB000200C900B900A90CB
:10070000FFE70A9840F22C01C2F2000109680139A2
:10071000884200F34281FFE70A9940F20800C2F2E2
:100720000000405C302819DBFFE70A9940F208001E
:10073000C2F20000405C392810DCFFE70C9800EBA7
:1007400080010A9A40F20800C2F20000805C00EBCF
:10075000410030380C9001200B901AE10B9860B1E9
:10076000FFE740F23000C2F2000000680CA900F080
:1007700039FD00200B900C90FFE70A9940F2080029
:10078000C2F20000405C29282ED1FFE740F234007D
:10079000C2F2000000680DF1370100F03FFDFFE7F5
:1007A0009DF83700282815D0FFE740F23400C2F248
:1007B0000000069000680DF13701079100F0F6FC8B
:1007C0009DF8370000F04AF906980799006800F094
:1007D00025FDE5E740F23400C2F2000000680DF1AB
:1007E000370100F0E3FCD4E040F23400C2F2000034
:1007F000006800F0BBFC48B9FFE70A9940F2080026
:10080000C2F20000405C28280ED1FFE740F234001D
:10081000C2F2000000680A9A40F20801C2F2000128
:10082000114400F0DFFCB4E040F23400C2F20000FA
:1008300000680DF1370100F0F1FC0A9940F2080060
:10084000C2F20000405C28380146059107280DD807
:100850000599DFE801F00A0B07040B040B070120E0
:10086000099006E00220099003E0FFE700200990CC
:10087000FFE79DF8370028380146049107280DD876
:100880000499DFE801F00A0B07040B040B070120B1
:10089000089006E00220089003E0FFE7002008909F
:1008A000FFE70998089988420EDDFFE740F234001F
:1008B000C2F2000000680A9A40F20801C2F2000188
:1008C000114400F08FFC64E0FFE709980899884222
:1008D00053DCFFE740F23400C2F2000003900068EE
:1008E0000DF1370100F062FC9DF8370000F0B6F81A
:1008F0000398006800F03AFC08B1FFE73DE040F2E1
:100900003400C2F2000000680DF1370100F086FCEF
:100910000A9940F20800C2F20000405C2838014603
:10092000029107280DD80299DFE801F00A0B0704AD
:100930000B040B070120099006E00220099003E058
:10094000FFE700200990FFE79DF8370028380146AF
:10095000019107280DD80199DFE801F00A0B07047F
:100960000B040B070120089006E00220089003E02A
:10097000FFE700200890FFE7A7E740F23400C2F24B
:10098000000000680DF1370100F02CFCFFE7FFE7E5
:10099000FFE70A9801300A90B3E60B9848B1FFE7E9
:1009A00040F23000C2F2000000680CA900F01AFC0E
:1009B000FFE7FFE740F23400C2F20000006800F0F9
:1009C000D5FB70B9FFE740F23400C2F200000068C6
:1009D0000DF1370100F0EAFB9DF8370000F03EF81A
:1009E000E8E740F23000C2F200000168096848F20E
:1009F0001F52C5F2EB1281FB0212510901EBD271B9
:100A000001F1300240F21901C2F200010A700268DD
:100A1000136846F26762C6F2666283FB023C4FEAE5
:100A2000AC0303EBDC7383FB02CE4FEA9E0C0CEBB2
:100A3000DE7C0CEB8C0CA3EB4C0330334B7000686A
:100A4000006880FB02239A0802EBD37202EB820259
:100A5000A0EB4200303088700EB080BD80B588B009
:100A60008DF81F0040F23000C2F2000002900068D2
:100A700006A900F09BFB0298006805A900F096FB10
:100A80009DF81F002A380146039105281AD80399BA
:100A9000DFE801F00D0318081812069805990844BC
:100AA00004901EE005980699401A049019E00698F3
:100AB00005994843049014E00598069990FBF1F0DD
:100AC00004900EE040F23000C2F200000190006895
:100AD00005A900F087FB0198006806A900F082FBD9
:100AE000FFE740F23000C2F20000006804A900F005
:100AF00079FB08B080BD000083B002904EF2100177
:100B0000CEF2000101200860029842F228314843E9
:100B10004EF21401CEF2000108604EF21801CEF23E
:100B2000000100200860FFE74EF21000CEF2000046
:100B300000680190FFE700209DF80410C9070090AD
:100B400031B1FFE79DF80610012088430090FFE7D0
:100B50000098C0070028E7D1FFE74EF21001CEF25F
:100B60000001002008604EF21801CEF2000108607A
:100B700003B0704780B582B0802000F043F90020B8
:100B80008DF80700FFE79DF807000F2810DCFFE74E
:100B90009DF8071040F20800C2F20000405C00F02F
:100BA00093F9FFE79DF8070001308DF80700EAE7A9
:100BB000C02000F027F900208DF80700FFE79DF81E
:100BC00007000F2810DCFFE79DF8071040F219001E
:100BD000C2F20000405C00F077F9FFE79DF80700E3
:100BE00001308DF80700EAE702B080BD80B588B01B
:100BF00040F60000C4F201000590FE21FFF768FCFA
:100C00000598FFF72FFCADF81E009DF81E008DF82B
:100C10001D009DF81D00FE2833D0FFE7C820FFF718
:100C20006BFF9DF81D00FE282AD0FFE79DF81D00F0
:100C300000F0F0008DF81A009DF81A0001460491AA
:100C4000702818D0FFE70498B02810D0FFE7049868
:100C5000D02808D0FFE70498E02810D1FFE7302023
:100C600000F02CFA0BE0312000F028FA07E03220E7
:100C700000F024FA03E0332000F020FAFFE792E0CE
:100C8000FFE740F60000C4F201000390FD21FFF7EA
:100C90001FFC0398FFF7E6FBADF81E009DF81E0051
:100CA0008DF81C009DF81C00FD2833D0FFE7C820FC
:100CB000FFF722FF9DF81C00FD282AD0FFE79DF8D2
:100CC0001C0000F0F0008DF81A009DF81A00014693
:100CD0000291702818D0FFE70298B02810D0FFE7E3
:100CE0000298D02808D0FFE70298E02810D1FFE74B
:100CF000342000F0E3F90BE0352000F0DFF907E0E5
:100D0000362000F0DBF903E0372000F0D7F9FFE7E9
:100D100049E0FFE740F60000C4F201000190FB212A
:100D2000FFF7D6FB0198FFF79DFBADF81E009DF87D
:100D30001E008DF81B009DF81B00FB2833D0FFE739
:100D4000C820FFF7D9FE9DF81B00FB282AD0FFE73B
:100D50009DF81B0000F0F0008DF81A009DF81A00B5
:100D600001460091702818D0FFE70098B02810D0F5
:100D7000FFE70098D02808D0FFE70098E02810D1BE
:100D8000FFE7382000F09AF90BE0392000F096F9DF
:100D900007E02A2000F092F903E0282000F08EF905
:100DA000FFE700E0FFE708B080BD000080B582B03B
:100DB0000F20FFF7A1FE322000F024F8052001905B
:100DC000FFF79AFE282000F01DF80198FFF794FE27
:100DD000082000F017F80198FFF78EFE012000F0C0
:100DE00011F80198FFF788FE062000F00BF8019833
:100DF000FFF782FE0C2000F005F80198FFF77CFE5B
:100E000002B080BD80B586B00590FFE700F074F9B0
:100E100008B1FFE7FAE740F60040C4F20100039092
:100E20000221FFF741FB03980421FFF73DFB0398E4
:100E300001210491FFF738FB0498FFF75DFE049849
:100E4000059A4FF4704101EA022240F61043C4F2C1
:100E5000010301931A60059AD24301EA022140F688
:100E60001442C4F2010202921160FFF745FE03989A
:100E70000499FFF723FB0498FFF73EFE03980499BB
:100E8000FFF712FB0498FFF737FE019B029A0498C4
:100E90000599090389B219600599C943090389B203
:100EA0001160FFF729FE03980499FFF707FB0498E8
:100EB000FFF722FE03980499FFF7F6FA0498FFF76C
:100EC0001BFE06B080BD000080B586B00590FFE730
:100ED00000F012F908B1FFE7FAE740F60040C4F26B
:100EE0000100039002210491FFF7E8FA039804211E
:100EF000FFF7DAFA039801210291FFF7D5FA029879
:100F0000FFF7FAFD0298059A4FF4704101EA0222B8
:100F100040F61043C4F2010300931A60059AD243CD
:100F200001EA022140F61442C4F20102019211606A
:100F3000FFF7E2FD02990398FFF7C0FA0298FFF766
:100F4000DBFD02990398FFF7AFFA0298FFF7D4FD93
:100F5000009B019A02980599090389B219600599C5
:100F6000C943090389B21160FFF7C6FD02990398CE
:100F7000FFF7A4FA0298FFF7BFFD02990398FFF765
:100F800093FA0298FFF7B8FD03980499FFF78CFADB
:100F900006B080BD80B582B00020019000F0D0F88E
:100FA00040F23001C2F200010091086000F0C8F880
:100FB0000146009840F23402C2F20002116000685B
:100FC00038B1FFE740F23400C2F20000006818B9FF
:100FD000FFE7012002B080BDFFF78CFAFFF7BEF8F3
:100FE000FFF7E4FEFFE700F005F8FFF7FFFDFFF76E
:100FF000C1FDF8E780B58AB040F60000C4F20100F8
:1010000001904FF48071FFF735FA01460198029183
:101010004FF40071FFF72EFA0146019803914FF447
:101020008061FFF727FA0146019804914FF40061AF
:10103000FFF720FA0146019805914FF48051FFF720
:1010400019FA0146019806914FF40051FFF712FA80
:101050000146019807914FF48041FFF70BFA089081
:101060001420FFF749FD029820B9FFE72B2000F07C
:1010700025F8FFE7039820B9FFE72D2000F01EF8C0
:10108000FFE7059820B9FFE72F2000F017F8FFE7EA
:10109000079820B9FFE7292000F010F8FFE708982B
:1010A00030B9FFE73D2000F009F8FFF723FBFFE729
:1010B0001420FFF721FD0AB080BD000081B08DF83B
:1010C000030040F22C00C2F2000000680F2801DB90
:1010D000FFE70FE040F22C01C2F200010868013086
:1010E00008609DF803000A6840F20801C2F200019E
:1010F0008854FFE701B0704780B584B040F60040E7
:10110000C4F2010001900221FFF7CEF901980421F9
:10111000FFF7D4F9019801210291FFF7CFF9019867
:10112000FFF7A0F900208DF80F000A20FFF7E4FC7C
:1011300001980299FFF7B8F99DF80F0004B080BD3F
:1011400080B582B0542000F091F80090009818B952
:10115000FFE70020019006E000994FF0FF3008659E
:1011600000980190FFE7019802B080BD82B0009026
:101170000098006D013018B9FFE70120019002E0EE
:1011800000200190FFE7019802B0704782B0009004
:101190000098006D132803D1FFE70120019002E0C1
:1011A00000200190FFE7019802B0704780B584B03D
:1011B000029001910298FFF7D9FF20B1FFE74FF0AD
:1011C000FF3003900AE00298016D4A1E026550F854
:1011D00021000199086000200390FFE7039804B004
:1011E00080BD000080B584B0029001910298FFF7A5
:1011F000CDFF20B1FFE74FF0FF3003900AE00198E8
:10120000006802990A6D01320A6541F82200002047
:101210000390FFE7039804B080BD000080B584B060
:10122000029001910298FFF7A1FF20B1FFE74FF074
:10123000FF30039008E00298016D50F821000199F9
:10124000086000200390FFE7039804B080BD02E02F
:1012500008C8121F08C1002AFAD170477047002041
:1012600001E001C1121F002AFBD17047F0B50B301D
:10127000154D20F007010024144A0FE003688B424B
:101280000BD38B4205D95E1A43184768C3E9006740
:1012900000E04368136002C004E0021D10680028EB
:1012A000ECD12046002802D1286808B10020F0BD0A
:1012B000064A07481060074A121A22F00702C0E9DE
:1012C000002401202860D7E704000020000000204F
:1012D0003C00002038020020F81200080000002026
:1012E000300000004E1200082813000830000020D3
:1012F000080600005E120008000000000000000068
:1013000020202020202020202020202020202020DD
:1013100000202020202020202020202020202020ED
:0813200020000000FFFFFFFFA9
:04000005080000ED02
:00000001FF
