:100003003F065B4F666D7D077F6F7773400000008F
:03001300000000EA
:1003B600410004084100050C41000F004100020005
:1003C600410003004900060A0C010200000000007B
:0B03E700EF1FAC0670011E4C70F622E8
:1000DA00E4900010F075900FAF90EF640F70030278
:1000EA00018C7FE87E031203E7AF90EF640F700381
:1000FA0002018C75900FAF90EF24F5601224FE6018
:10010A001614601B2407701DE4900004F0801690FA
:10011A0000047401F0800E9000047402F0800690CE
:10012A0000047403F07590F0AF90EF24506013242C
:10013A00E0601824F0601D24707020900004E0F044
:10014A008019900004E02404F08010900004E02458
:10015A0008F08007900004E0240CF0900010E0FF03
:10016A003395E0FEC3EF9432EE648094805013AF6F
:10017A0090EF64F0600C7FE87E031203E7E004F07E
:02018A0080D91A
:01018C002250
:10034800900005E0FF75F00A84900008F0EF75F062
:100358000A84A3E5F0F090000FE0FF75F00A84909E
:10036800000AF0EF75F00A84A3E5F0F0900002E0CF
:10037800FF75F00A8490000CF0EF75F00A84A3E58D
:03038800F0F02270
:10021900E4FDEDC39408748094805071EDB4080036
:10022900504D900232F828287302024A02024E0207
:10023900025602025A02026202026602026E0202B9
:1002490072C2A28002D2A2C2A3C2A48022C2A28088
:1002590002D2A2D2A3C2A48016C2A28002D2A2C292
:10026900A3D2A4800AC2A28002D2A2D2A3D2A47429
:10027900062DF582E43400F583E090000393F580C0
:0D0289007F647E001203E7E4F5800D8085A0
:010296002245
:10001E00900004E0B4080040030200CD900031F8D7
:10002E0028287302004902007002007802007D0247
:10003E00008502009A0200AA0200BA900005E0C3F1
:10004E00940C748094804008A3740BF0A304800970
:10005E00900006740AF0A3740CF09000037401F083
:10006E00805D900005E02401802890000F800390B1
:10007E000002E02401802B900003E0604290000615
:10008E00740DF0A3F0E4900003F08033900005E0CF
:10009E002417FFE433FE7C007D18801E90000FE0D5
:1000AE00243BFFE433FE7C007D3C800E900002E09A
:1000BE00243BFFE433FE7C007D3C1202F3EDF01294
:0C00CE0003481202199000047408F0228C
:1003D700438910758DFC758B18D2ABD2AFD28E22A4
:10038B00900002E004F0E0643C7007F090000FE096
:10039B0004F090000FE0643C7007F0900005E0045F
:0B03AB00F0900005E064187001F022E3
:0B03F2001203D71200DA12001E80F880
:03001B0002029747
:10029700C0E0C0F0C083C082C0D075D000C000C02D
:0702A70004C005C006C007FA
:1002AE00758DFC758B18900001E004F070069000BF
:1002BE0000E004F0900000E0B40315A3E0B4E810F1
:1002CE0012038B120348120219900000E4F0A3F0FF
:1002DE00D007D006D005D004D000D0D0D082D083A5
:0502EE00D0F0D0E03269
:0300000002018D6D
:0C018D00787FE4F6D8FD7581070201D4EC
:1002F300BC000BBE0029EF8DF084FFADF022E4CCEF
:10030300F875F008EF2FFFEE33FEEC33FCEE9DECB7
:10031300984005FCEE9DFE0FD5F0E9E4CEFD22EDFD
:10032300F8F5F0EE8420D21CFEADF075F008EF2F47
:10033300FFED33FD4007985006D5F0F222C398FD38
:050343000FD5F0EA22D5
:100199000203F2E493A3F8E493A34003F68001F287
:1001A90008DFF48029E493A3F85407240CC8C33367
:1001B900C4540F4420C8834004F456800146F6DF36
:1001C900E4800B01020408102040809003B6E47E0D
:1001D900019360BCA3FF543F30E509541FFEE4932B
:1001E900A360010ECF54C025E060A840B8E493A3F2
:1001F900FAE493A3F8E493A3C8C582C8CAC583CA1D
:10020900F0A3C8C582C8CAC583CADFE9DEE780BED4
:0103D6000026
:00000001FF
