:020000040800F2
:100000000807002045130008B3050008B5050008DF
:10001000B9050008BD050008C10500080000000082
:10002000000000000000000000000000C5050008FE
:10003000C705000800000000C9050008CB0500083E
:100040005F1300085F1300085F1300085F130008C8
:100050005F1300085F1300085F1300085F130008B8
:100060005F1300085F1300085F1300085F130008A8
:100070005F1300085F1300085F1300085F13000898
:100080005F1300085F1300085F1300085F13000888
:100090005F1300085F1300085F1300085F13000878
:1000A0005F1300085F1300085F1300085F13000868
:1000B0005F1300085F1300085F1300085F13000858
:1000C0005F1300085F1300085F1300085F13000848
:1000D0005F1300085F1300085F1300085F13000838
:1000E0005F1300085F1300085F13000800F002F8B8
:1000F00000F03AF80AA090E8000C82448344AAF188
:100100000107DA4501D100F02FF8AFF2090EBAE885
:100110000F0013F0010F18BFFB1A43F0010318473B
:10012000D8120000F8120000103A24BF78C878C135
:10013000FAD8520724BF30C830C144BF04680C60ED
:10014000704700000023002400250026103A28BF35
:1001500078C1FBD8520728BF30C148BF0B60704739
:100160001FB51FBD10B510BD01F00FF91146FFF707
:10017000F7FF00F0BAF901F02DF903B4FFF7F2FF31
:1001800003BC01F031F9000008B54FF47F40ADF831
:10019000000003208DF8020048208DF80300694616
:1001A000DC4800F0BFFC0F20ADF8000003208DF804
:1001B000020010208DF803006946D64800F0B2FC1A
:1001C000F020ADF8000003208DF8020048208DF8E3
:1001D00003006946CF4800F0A5FC08BD10B501F04A
:1001E00030F80121082000F059FF0121042000F01F
:1001F00055FF0121084600F051FF0121C64800F0DB
:1002000062FD10BD1FB54FF48071C24800F01DFDA6
:10021000ADF800004FF40071BE4800F016FDADF8D7
:1002200002004FF48061BB4800F00FFDADF8040000
:100230004FF40061B74800F008FDADF806004FF438
:100240008051B44800F001FDADF808004FF40051B2
:10025000B04800F0FAFCADF80A004FF48041AD4818
:1002600000F0F3FCADF80C00142000F086F9002437
:100270000BE03DF8140030B90120A849087004F1E2
:100280000A00A7490870601C84B2062CF1DD5A20D0
:1002900000F073F91FBD10B5A0480078012814D1F3
:1002A00000209E4908709F489D490978405C9E49FE
:1002B0009E4A127888549D4A1278885C00F04BFB65
:1002C0009A480078401C9949087010BD10B5FFF796
:1002D00099FFFFF7E0FF10BD2DE9F047FE218D48A3
:1002E00000F0D6FC8B4800F0B9FC054605F0FF098C
:1002F000B9F1FE0F2ED0C82000F03FF9B9F1FE0F82
:1003000025D009F0F004702C19D0B02C10D0D02CCE
:1003100008D0E02C1AD101208549087000208549B9
:10032000087013E0012082490870824908700DE0CE
:1003300001207F49087002207E49087006E00120F4
:100340007B49087003207B49087000BF00BF0A206A
:1003500000F013F9FD216F4800F09AFC6D4800F0A1
:100360007DFC0546EEB2FD2E2BD0C82000F005F92D
:10037000FD2E26D006F0F004702C1AD0B02C11D02F
:10038000D02C08D0E02C1BD1012069490870042032
:100390006849087014E00120654908700520654926
:1003A00008700DE00120624908700620614908705C
:1003B00006E001205E49087007205E49087000BF12
:1003C00000BFFB21534800F063FC524800F046FC9C
:1003D0000546EFB2FB2F2BD0C82000F0CEF8FB2F44
:1003E00026D007F0F004702C1AD0B02C11D0D02CED
:1003F00008D0E02C1BD101204D49087008204D4940
:10040000087014E001204A49087009204949087021
:100410000DE00120464908700A204649087006E0B0
:100420000120434908700B204249087000BF00BFFB
:10043000F721384800F02CFC364800F00FFC054648
:1004400005F0FF08B8F1F70F2CD0C82000F095F8A0
:10045000B8F1F70F26D008F0F004702C1AD0B02CA9
:1004600011D0D02C08D0E02C1BD1012030490870CD
:100470000C203049087014E001202D4908700D202F
:100480002C4908700DE00120294908700E202949E7
:10049000087006E00120264908700F2025490870E1
:1004A00000BF00BFBDE8F08710B5214800780128E3
:1004B00014D100201E4908701A481E490978405C72
:1004C00019491A4A12788854184A1278885C00F040
:1004D00042FA16480078401C1449087010BD10B547
:1004E000FFF7FAFEFFF7E0FF10BD00F09CF800F008
:1004F000B9F9FFF773FE00F069F800F0A3F900F016
:1005000085FAFFF741FE03E0FFF7E9FFFFF7DEFEA4
:10051000FAE7000000080140000430001500002048
:1005200014000020000000204000002013000020E4
:10053000170000201600002000BF0100A0F10100FC
:10054000FBD17047014601224FF0E0231A6101EB15
:10055000C1025A6100229A6100BF4FF0E022106987
:1005600000F001021AB100F48032002AF5D0002216
:100570004FF0E0231A619A617047014601224FF063
:10058000E0231A6142F228324A435A6100229A61FA
:1005900000BF4FF0E022106900F001021AB100F430
:1005A0008032002AF5D000224FF0E0231A619A61D0
:1005B0007047704700BFFEE700BFFEE700BFFEE7E1
:1005C00000BFFEE7704770477047704708B540208E
:1005D000ADF8000010208DF8030003208DF8020014
:1005E0006946974800F09EFA08BD08B58020ADF82E
:1005F000000010208DF8030003208DF802006946EA
:100600008F4800F08FFA08BD08B58020ADF80000D3
:1006100048208DF8030003208DF8020069468848C1
:1006200000F080FA08BD10B500F00BFE0121082093
:1006300000F034FD10BD10B54021814800F01FFBD3
:10064000FFF7D3FF80217E4800F019FB6420FFF7FD
:1006500079FF80217A4800F014FB6420FFF772FFD5
:1006600010BD10B54021764800F00BFBFFF7BDFF31
:100670008021734800F005FB6420FFF763FF4021F1
:100680006F4800F0FCFA80216D4800F0F8FA642011
:10069000FFF758FF10BD10B54021694800F0F1FA8E
:1006A0006420FFF74FFFFFF7A0FF8021644800F0B0
:1006B000E6FA6420FFF746FF4021614800F0DFFAC8
:1006C00080215F4800F0DDFA6420FFF73BFF8021C6
:1006D0005B4800F0D4FA6420FFF734FF402158480B
:1006E00000F0CFFA10BD10B54021554800F0C9FA0E
:1006F0006420FFF727FFFFF778FF8021504800F0C4
:10070000BEFA40214E4800F0BAFA6420FFF71AFF03
:1007100040214B4800F0B5FA6420FFF713FF10BDED
:1007200070B504464021464800F0ABFA6420FFF75C
:1007300009FFFFF75AFF00251EE00120B0EBD41F90
:1007400004D180213E4800F09AFA03E080213C4821
:1007500000F097FA6006040E4021394800F08FFA45
:100760006420FFF7EFFE4021354800F08AFA64204C
:10077000FFF7E8FE681CC5B2082DDEDB70BD70B562
:1007800005460C46FFF757FFA020FFF7C9FFFFF70C
:1007900082FF2846FFF7C4FFFFF77DFF2046FFF7E3
:1007A000BFFFFFF778FFFFF75CFF70BD70B5002457
:1007B0004021234800F063FA6420FFF7C3FEFFF7EF
:1007C00023FF002519E06006040E80211C4800F07C
:1007D0003CFA012801D144F001044021184800F0FE
:1007E00050FA6420FFF7AEFE4021154800F047FAAA
:1007F0006420FFF7A7FE681CC5B2082DE3DB204686
:1008000070BD70B504460025FFF715FFA020FFF767
:1008100087FFFFF740FF2046FFF782FFFFF73BFF10
:10082000FFF709FFA120FFF77BFFFFF734FFFFF77A
:10083000BDFF0546FFF757FFFFF713FF284670BDC2
:10084000000C014008B54FF60770ADF8000010200D
:100850008DF8030003208DF802006946804800F0FF
:1008600061F908BD10B500F0ECFC0121082000F092
:1008700015FC10BD10B50221794800F002FA0421E0
:10088000774800F0FCF90121754800F0F8F9744848
:1008900000F0E4F900240A20FFF76FFE0121704800
:1008A00000F0EFF9204610BD10B5044600BFFFF779
:1008B000E1FF0028FBD10221694800F0E2F90421A0
:1008C000674800F0DEF90121654800F0DAF90120FF
:1008D000FFF753FE4FF4704000EA042060491031E6
:1008E0000860E0434FF4704101EA00205C49143194
:1008F00008600120FFF741FE0121594800F0BFF9CF
:100900000120FFF73AFE0121554800F0BAF9012015
:10091000FFF733FE4FF4704000EA043050491031C5
:100920000860E0434FF4704101EA00304C49143153
:1009300008600120FFF721FE0121494800F09FF9DE
:100940000120FFF71AFE0121454800F09AF9012025
:10095000FFF713FE10BD10B5044600BFFFF78AFF76
:100960000028FBD102213E4800F089F904213C48CF
:1009700000F087F901213A4800F083F90120FFF7E0
:10098000FCFD4FF4704000EA042035491031086046
:10099000E0434FF4704101EA00203149143108600E
:1009A0000120FFF7EAFD01212D4800F068F9012040
:1009B000FFF7E3FD01212A4800F063F90120FFF76A
:1009C000DCFD4FF4704000EA043025491031086026
:1009D000E0434FF4704101EA0030214914310860CE
:1009E0000120FFF7CAFD01211D4800F048F9012050
:1009F000FFF7C3FD01211A4800F043F90120FFF77A
:100A0000BCFD0221164800F03CF910BD10B50F20C6
:100A1000FFF7B3FD3220FFF747FF0520FFF7ADFDDD
:100A20002820FFF741FF0520FFF7A7FD0820FFF76B
:100A30003BFF0520FFF7A1FD0120FFF735FF052053
:100A4000FFF79BFD0620FFF72FFF0520FFF795FD21
:100A50000C20FFF729FF0520FFF78FFD10BD0000D8
:100A6000000C014010B50446CC48844208D1012155
:100A7000042000F02DFB0021042000F029FB46E0BB
:100A8000C748844208D10121082000F021FB002141
:100A9000082000F01DFB3AE0C248844208D1012141
:100AA000102000F015FB0021102000F011FB2EE0BB
:100AB000BD48844208D10121202000F009FB00211B
:100AC000202000F005FB22E0B848844208D1012133
:100AD000402000F0FDFA0021402000F0F9FA16E075
:100AE000B348844208D10121802000F0F1FA0021AE
:100AF000802000F0EDFA0AE0AE48844207D10121DF
:100B0000801500F0E5FA0021A01500F0E1FA10BD13
:100B100010B50121084600F0DBFA0021012000F0A9
:100B2000D7FA10BD2DE9F04102460025002600202D
:100B300000230024002791F803C00CF00F0591F862
:100B400003C00CF0100CBCF1000F03D091F802C0F0
:100B50004CEA050591F800C0BCF1000F31D01468D3
:100B600000202BE04FF0010C0CFA00F3B1F800C0AC
:100B70000CEA03069E4220D183004FF00F0C0CFAC2
:100B800003F7BC4305FA03FC4CEA040491F803C0E4
:100B9000BCF1280F06D14FF0010C0CFA00FCC2F892
:100BA00014C00AE091F803C0BCF1480F05D14FF022
:100BB000010C0CFA00FCC2F810C0401C0828D1D36C
:100BC0001460B1F800C0BCF1FF0F34DD54680020A0
:100BD0002EE000F1080C4FF0010808FA0CF3B1F810
:100BE00000C00CEA03069E4221D183004FF00F0C97
:100BF0000CFA03F7BC4305FA03FC4CEA040491F831
:100C000003C0BCF1280F05D100F1080C08FA0CF85C
:100C1000C2F8148091F803C0BCF1480F07D100F16D
:100C2000080C4FF0010808FA0CF8C2F81080401CBC
:100C30000828CED35460BDE8F0814FF6FF710180E3
:100C4000022181700421C170704702460020936820
:100C50000B400BB1012000E000207047014688687E
:100C600080B2704702460020D3680B400BB10120D0
:100C700000E0002070470146C86880B270470161FB
:100C80007047416170470AB1016100E041617047FE
:100C9000C16070474FF480320A4382618161826192
:100CA00082698269704702460020434B18684FF6FC
:100CB0008073184040EA021008433F4B18607047A9
:100CC0003E49C8617047F0B50A4600230024002160
:100CD000002500F00046B6F1004F02D1364EF16912
:100CE00001E0354E7168C0F3034583B200F440164D
:100CF000B6F5401F08D121F070612F4E766826F0BE
:100D000070662D4F7E6012E000F48016B6F5801FED
:100D100006D1032606FA05F4A14341F0706106E00E
:100D2000460D360103FA06F6B14341F0706122B177
:100D3000460D360103FA06F6314300F00046B6F1DF
:100D4000004F02D11C4EF16101E01B4E7160F0BDFD
:100D500030B500228B071C0F0F2303FA04F2164B49
:100D600008338C1053F824309343134C08348D10FF
:100D700044F8253023468C1053F824308C07240F78
:100D800000FA04F423430C4C08348D1044F8253049
:100D900030BD0A49DC31086070470000000801409E
:100DA000000C0140001001400014014000180140F7
:100DB000001C0140002001400000014000002042D2
:100DC000DF48006840F00100DD49086008464068DF
:100DD000DC490840DA49486008460068DA490840BA
:100DE000D74908600846006820F48020086008465B
:100DF000406820F4FE0048604FF41F008860704790
:100E0000CF49096821F48031CD4A11601146096843
:100E100021F480211160B0F5803F03D0B0F5802F20
:100E20000ED106E0C649096841F48031C44A116018
:100E300007E0C349096841F4A021C14A116000E0FC
:100E400000BF00BF704710B50146002200230020FC
:100E50004A11012A02D1BA4C236806E0022A02D1C3
:100E6000B74C236A01E0B64C636A01F01F0201240B
:100E700094401C400CB1012000E0002010BD38B5AA
:100E8000002000900024002500BF3120FFF7DBFF89
:100E900005460098401C00900098B0F5A06F01D066
:100EA000002DF2D03120FFF7CEFF08B1012400E081
:100EB0000024204638BD01460020A14A106820F0D9
:100EC000F80040EAC10010607047A0490860704710
:100ED000024600209A4B586820F47C1042EA010335
:100EE0001843974B58607047984908667047014609
:100EF0000020934A506820F0030008435060704778
:100F00008F48406800F00C007047014600208C4A72
:100F1000506820F0F0000843506070470146002000
:100F2000874A506820F4E0600843506070470146EB
:100F30000020834A506820F4605040EAC1005060AD
:100F4000704729B17E4A527A02437D4B5A7204E0BF
:100F50007B4A527A82437A4B5A7270477B49D83126
:100F60000860704701460020754A506820F44040F0
:100F70000843506070470021714A20321170704A56
:100F800082F82010012802D004280AD104E00121AF
:100F90006B4A2032117005E00521694A2032117038
:100FA00000E000BF00BF70476949086070476449AE
:100FB000096A0143624A1162704765494439086011
:100FC000704730B500210022002400235C4D6D687D
:100FD00005F00C0121B1042905D0082923D105E031
:100FE0005C4D056022E05B4D05601FE0544D6D686F
:100FF00005F47012524D6D6805F48034022505EB3E
:1010000092421CB9544D554305600BE04C4D6D6840
:1010100005F400351DB1504D5543056002E04D4DBE
:101020005543056002E04B4D056000BF00BF444DD5
:101030006D6805F0F0010909484D6B5C0568DD40FD
:1010400045603F4D6D6805F4E061090A434D6B5CF6
:101050004568DD4085603A4D6D6805F46051C90A08
:101060003E4D6B5C4568DD40C560354D6D6805F4EF
:101070004041890B3A4D6B5CC568B5FBF3F50561E2
:1010800030BD29B12E4A526902432D4B5A6104E00A
:101090002B4A526982432A4B5A61704729B1284A28
:1010A00092690243264B9A6104E0254A9269824381
:1010B000234B9A61704729B1214AD2690243204BE0
:1010C000DA6104E01E4AD26982431D4BDA6170473F
:1010D00029B11B4AD2680243194BDA6004E0184A6E
:1010E000D2688243164BDA60704729B1144A1269FC
:1010F0000243134B1A6104E0114A12698243104BF8
:101100001A61704712494039086070470F49C86436
:1011100070470B49C87170470948406A40F08070B9
:1011200007494862704701460020054A92680A4014
:101130000AB1012000E00020704701498872704721
:10114000001002400000FFF8FFFFF6FE00004242E0
:101150008004424200127A0000093D00180000207D
:10116000280000200CB50020019000906C48006819
:1011700040F480306A49086000BF6948006800F4A4
:10118000003000900198401C0190009818B9019817
:10119000B0F5A06FF1D16248006800F4003010B1E2
:1011A0000120009001E0002000900098012843D128
:1011B0005C48006840F010005A4908600846006822
:1011C00020F0030008600846006840F00200086054
:1011D000534840685249486008464068486008469D
:1011E000406840F4806048600846406820F47C1005
:1011F00048600846406840F4E810486008460068C7
:1012000040F08070086000BF4548006800F0007042
:101210000028F9D04248406820F003004049486067
:101220000846406840F00200486000BF3C48406803
:1012300000F00C000828F9D10CBD10B5FFF792FFA3
:1012400010BD10B53648006840F001003449086010
:1012500008464068344908403149486008460068FB
:10126000324908402E4908600846006820F4802072
:1012700008600846406820F4FE0048604FF41F00F4
:101280008860FFF7DAFF4FF000602949086010BD61
:1012900010B5002100200022214B5B6803F00C01F7
:1012A00021B1042906D0082928D107E0214B224C7E
:1012B000236027E01F4B204C236023E0184B5B6822
:1012C00003F47010164B5B6803F48032022303EBC7
:1012D000904022B9194B4343174C23600DE0104B4B
:1012E0005B6803F4003323B1144B4343124C236077
:1012F00003E0104B4343104C236003E00D4B0E4CB6
:10130000236000BF00BF064B5B68C3F303130C4CA4
:10131000E15C094B1B68CB40074C236010BD00000B
:1013200000100240002002400000FFF8FFFFF6FE20
:1013300008ED00E000127A002C00002000093D00BA
:10134000300000200948804709480047FEE7FEE7D3
:10135000FEE7FEE7FEE7FEE7FEE7FEE7FEE7FEE765
:1013600004480549054A064B70470000431200082F
:10137000ED000008080100200807002008030020F5
:1013800008030020704770477047754600F028F842
:10139000AE4605006946534620F00700854618B062
:1013A00020B5FFF7DDFFBDE820404FF000064FF00D
:1013B00000074FF000084FF0000B21F00701AC468A
:1013C000ACE8C009ACE8C009ACE8C009ACE8C009A9
:1013D0008D4670470446AFF300802046FEF7CDFEF1
:1013E00000487047A400002001491820ABBEFEE76A
:1013F00026000200704700001814000800000020BA
:101400004000000028010008581400084000002097
:10141000C806000044010008303132333435363715
:1014200038392B2D2A2F28293D3D000000000000CF
:10143000000000000102030401020304060708097A
:101440000204060800A24A04000000000000000098
:0814500001020304060708096C
:04000005080000ED02
:00000001FF
